{
  "_format": "hh3-artifact-1",
  "contractName": "MantleAgentToken",
  "sourceName": "contracts/MantleAgentToken.sol",
  "abi": [
    {
      "inputs": [
        {
          "internalType": "address",
          "name": "_liquidityWallet",
          "type": "address"
        }
      ],
      "stateMutability": "nonpayable",
      "type": "constructor"
    },
    {
      "inputs": [
        {
          "internalType": "address",
          "name": "spender",
          "type": "address"
        },
        {
          "internalType": "uint256",
          "name": "allowance",
          "type": "uint256"
        },
        {
          "internalType": "uint256",
          "name": "needed",
          "type": "uint256"
        }
      ],
      "name": "ERC20InsufficientAllowance",
      "type": "error"
    },
    {
      "inputs": [
        {
          "internalType": "address",
          "name": "sender",
          "type": "address"
        },
        {
          "internalType": "uint256",
          "name": "balance",
          "type": "uint256"
        },
        {
          "internalType": "uint256",
          "name": "needed",
          "type": "uint256"
        }
      ],
      "name": "ERC20InsufficientBalance",
      "type": "error"
    },
    {
      "inputs": [
        {
          "internalType": "address",
          "name": "approver",
          "type": "address"
        }
      ],
      "name": "ERC20InvalidApprover",
      "type": "error"
    },
    {
      "inputs": [
        {
          "internalType": "address",
          "name": "receiver",
          "type": "address"
        }
      ],
      "name": "ERC20InvalidReceiver",
      "type": "error"
    },
    {
      "inputs": [
        {
          "internalType": "address",
          "name": "sender",
          "type": "address"
        }
      ],
      "name": "ERC20InvalidSender",
      "type": "error"
    },
    {
      "inputs": [
        {
          "internalType": "address",
          "name": "spender",
          "type": "address"
        }
      ],
      "name": "ERC20InvalidSpender",
      "type": "error"
    },
    {
      "inputs": [
        {
          "internalType": "address",
          "name": "owner",
          "type": "address"
        }
      ],
      "name": "OwnableInvalidOwner",
      "type": "error"
    },
    {
      "inputs": [
        {
          "internalType": "address",
          "name": "account",
          "type": "address"
        }
      ],
      "name": "OwnableUnauthorizedAccount",
      "type": "error"
    },
    {
      "anonymous": false,
      "inputs": [
        {
          "indexed": true,
          "internalType": "address",
          "name": "owner",
          "type": "address"
        },
        {
          "indexed": true,
          "internalType": "address",
          "name": "spender",
          "type": "address"
        },
        {
          "indexed": false,
          "internalType": "uint256",
          "name": "value",
          "type": "uint256"
        }
      ],
      "name": "Approval",
      "type": "event"
    },
    {
      "anonymous": false,
      "inputs": [
        {
          "indexed": false,
          "internalType": "uint256",
          "name": "newBurnFee",
          "type": "uint256"
        },
        {
          "indexed": false,
          "internalType": "uint256",
          "name": "newLiquidityFee",
          "type": "uint256"
        }
      ],
      "name": "FeesUpdated",
      "type": "event"
    },
    {
      "anonymous": false,
      "inputs": [
        {
          "indexed": true,
          "internalType": "address",
          "name": "previousOwner",
          "type": "address"
        },
        {
          "indexed": true,
          "internalType": "address",
          "name": "newOwner",
          "type": "address"
        }
      ],
      "name": "OwnershipTransferred",
      "type": "event"
    },
    {
      "anonymous": false,
      "inputs": [
        {
          "indexed": true,
          "internalType": "address",
          "name": "from",
          "type": "address"
        },
        {
          "indexed": true,
          "internalType": "address",
          "name": "to",
          "type": "address"
        },
        {
          "indexed": false,
          "internalType": "uint256",
          "name": "value",
          "type": "uint256"
        }
      ],
      "name": "Transfer",
      "type": "event"
    },
    {
      "inputs": [],
      "name": "MAX_SUPPLY",
      "outputs": [
        {
          "internalType": "uint256",
          "name": "",
          "type": "uint256"
        }
      ],
      "stateMutability": "view",
      "type": "function"
    },
    {
      "inputs": [
        {
          "internalType": "address",
          "name": "owner",
          "type": "address"
        },
        {
          "internalType": "address",
          "name": "spender",
          "type": "address"
        }
      ],
      "name": "allowance",
      "outputs": [
        {
          "internalType": "uint256",
          "name": "",
          "type": "uint256"
        }
      ],
      "stateMutability": "view",
      "type": "function"
    },
    {
      "inputs": [
        {
          "internalType": "address",
          "name": "spender",
          "type": "address"
        },
        {
          "internalType": "uint256",
          "name": "value",
          "type": "uint256"
        }
      ],
      "name": "approve",
      "outputs": [
        {
          "internalType": "bool",
          "name": "",
          "type": "bool"
        }
      ],
      "stateMutability": "nonpayable",
      "type": "function"
    },
    {
      "inputs": [
        {
          "internalType": "address",
          "name": "account",
          "type": "address"
        }
      ],
      "name": "balanceOf",
      "outputs": [
        {
          "internalType": "uint256",
          "name": "",
          "type": "uint256"
        }
      ],
      "stateMutability": "view",
      "type": "function"
    },
    {
      "inputs": [],
      "name": "burnFee",
      "outputs": [
        {
          "internalType": "uint256",
          "name": "",
          "type": "uint256"
        }
      ],
      "stateMutability": "view",
      "type": "function"
    },
    {
      "inputs": [],
      "name": "decimals",
      "outputs": [
        {
          "internalType": "uint8",
          "name": "",
          "type": "uint8"
        }
      ],
      "stateMutability": "view",
      "type": "function"
    },
    {
      "inputs": [
        {
          "internalType": "address",
          "name": "",
          "type": "address"
        }
      ],
      "name": "isExcludedFromFee",
      "outputs": [
        {
          "internalType": "bool",
          "name": "",
          "type": "bool"
        }
      ],
      "stateMutability": "view",
      "type": "function"
    },
    {
      "inputs": [],
      "name": "liquidityFee",
      "outputs": [
        {
          "internalType": "uint256",
          "name": "",
          "type": "uint256"
        }
      ],
      "stateMutability": "view",
      "type": "function"
    },
    {
      "inputs": [],
      "name": "liquidityWallet",
      "outputs": [
        {
          "internalType": "address",
          "name": "",
          "type": "address"
        }
      ],
      "stateMutability": "view",
      "type": "function"
    },
    {
      "inputs": [],
      "name": "name",
      "outputs": [
        {
          "internalType": "string",
          "name": "",
          "type": "string"
        }
      ],
      "stateMutability": "view",
      "type": "function"
    },
    {
      "inputs": [],
      "name": "owner",
      "outputs": [
        {
          "internalType": "address",
          "name": "",
          "type": "address"
        }
      ],
      "stateMutability": "view",
      "type": "function"
    },
    {
      "inputs": [],
      "name": "renounceOwnership",
      "outputs": [],
      "stateMutability": "nonpayable",
      "type": "function"
    },
    {
      "inputs": [],
      "name": "symbol",
      "outputs": [
        {
          "internalType": "string",
          "name": "",
          "type": "string"
        }
      ],
      "stateMutability": "view",
      "type": "function"
    },
    {
      "inputs": [],
      "name": "totalSupply",
      "outputs": [
        {
          "internalType": "uint256",
          "name": "",
          "type": "uint256"
        }
      ],
      "stateMutability": "view",
      "type": "function"
    },
    {
      "inputs": [
        {
          "internalType": "address",
          "name": "recipient",
          "type": "address"
        },
        {
          "internalType": "uint256",
          "name": "amount",
          "type": "uint256"
        }
      ],
      "name": "transfer",
      "outputs": [
        {
          "internalType": "bool",
          "name": "",
          "type": "bool"
        }
      ],
      "stateMutability": "nonpayable",
      "type": "function"
    },
    {
      "inputs": [
        {
          "internalType": "address",
          "name": "from",
          "type": "address"
        },
        {
          "internalType": "address",
          "name": "to",
          "type": "address"
        },
        {
          "internalType": "uint256",
          "name": "value",
          "type": "uint256"
        }
      ],
      "name": "transferFrom",
      "outputs": [
        {
          "internalType": "bool",
          "name": "",
          "type": "bool"
        }
      ],
      "stateMutability": "nonpayable",
      "type": "function"
    },
    {
      "inputs": [
        {
          "internalType": "address",
          "name": "newOwner",
          "type": "address"
        }
      ],
      "name": "transferOwnership",
      "outputs": [],
      "stateMutability": "nonpayable",
      "type": "function"
    },
    {
      "inputs": [
        {
          "internalType": "uint256",
          "name": "_burnFee",
          "type": "uint256"
        },
        {
          "internalType": "uint256",
          "name": "_liquidityFee",
          "type": "uint256"
        }
      ],
      "name": "updateFees",
      "outputs": [],
      "stateMutability": "nonpayable",
      "type": "function"
    }
  ],
  "bytecode": "0x6080604052600260065560036007553480156200001a575f80fd5b50604051620020ba380380620020ba83398181016040528101906200004091906200063c565b336040518060400160405280601181526020017f4d616e746c65204167656e7420436f72650000000000000000000000000000008152506040518060400160405280600381526020017f4d414300000000000000000000000000000000000000000000000000000000008152508160039081620000be9190620008d0565b508060049081620000d09190620008d0565b5050505f73ffffffffffffffffffffffffffffffffffffffff168173ffffffffffffffffffffffffffffffffffffffff160362000146575f6040517f1e4fbdf70000000000000000000000000000000000000000000000000000000081526004016200013d9190620009c5565b60405180910390fd5b62000157816200026660201b60201c565b508060085f6101000a81548173ffffffffffffffffffffffffffffffffffffffff021916908373ffffffffffffffffffffffffffffffffffffffff160217905550600160095f3373ffffffffffffffffffffffffffffffffffffffff1673ffffffffffffffffffffffffffffffffffffffff1681526020019081526020015f205f6101000a81548160ff021916908315150217905550600160095f3073ffffffffffffffffffffffffffffffffffffffff1673ffffffffffffffffffffffffffffffffffffffff1681526020019081526020015f205f6101000a81548160ff0219169083151502179055506200025f336a52b7d2dcc80cd2e40000006200032960201b60201c565b5062000aae565b5f60055f9054906101000a900473ffffffffffffffffffffffffffffffffffffffff1690508160055f6101000a81548173ffffffffffffffffffffffffffffffffffffffff021916908373ffffffffffffffffffffffffffffffffffffffff1602179055508173ffffffffffffffffffffffffffffffffffffffff168173ffffffffffffffffffffffffffffffffffffffff167f8be0079c531659141344cd1fd0a4f28419497f9722a3daafe3b4186f6b6457e060405160405180910390a35050565b5f73ffffffffffffffffffffffffffffffffffffffff168273ffffffffffffffffffffffffffffffffffffffff16036200039c575f6040517fec442f05000000000000000000000000000000000000000000000000000000008152600401620003939190620009c5565b60405180910390fd5b620003af5f8383620003b360201b60201c565b5050565b5f73ffffffffffffffffffffffffffffffffffffffff168373ffffffffffffffffffffffffffffffffffffffff160362000407578060025f828254620003fa919062000a0d565b92505081905550620004d8565b5f805f8573ffffffffffffffffffffffffffffffffffffffff1673ffffffffffffffffffffffffffffffffffffffff1681526020019081526020015f205490508181101562000493578381836040517fe450d38c0000000000000000000000000000000000000000000000000000000081526004016200048a9392919062000a58565b60405180910390fd5b8181035f808673ffffffffffffffffffffffffffffffffffffffff1673ffffffffffffffffffffffffffffffffffffffff1681526020019081526020015f2081905550505b5f73ffffffffffffffffffffffffffffffffffffffff168273ffffffffffffffffffffffffffffffffffffffff160362000521578060025f82825403925050819055506200056b565b805f808473ffffffffffffffffffffffffffffffffffffffff1673ffffffffffffffffffffffffffffffffffffffff1681526020019081526020015f205f82825401925050819055505b8173ffffffffffffffffffffffffffffffffffffffff168373ffffffffffffffffffffffffffffffffffffffff167fddf252ad1be2c89b69c2b068fc378daa952ba7f163c4a11628f55a4df523b3ef83604051620005ca919062000a93565b60405180910390a3505050565b5f80fd5b5f73ffffffffffffffffffffffffffffffffffffffff82169050919050565b5f6200060682620005db565b9050919050565b6200061881620005fa565b811462000623575f80fd5b50565b5f8151905062000636816200060d565b92915050565b5f60208284031215620006545762000653620005d7565b5b5f620006638482850162000626565b91505092915050565b5f81519050919050565b7f4e487b71000000000000000000000000000000000000000000000000000000005f52604160045260245ffd5b7f4e487b71000000000000000000000000000000000000000000000000000000005f52602260045260245ffd5b5f6002820490506001821680620006e857607f821691505b602082108103620006fe57620006fd620006a3565b5b50919050565b5f819050815f5260205f209050919050565b5f6020601f8301049050919050565b5f82821b905092915050565b5f60088302620007627fffffffffffffffffffffffffffffffffffffffffffffffffffffffffffffffff8262000725565b6200076e868362000725565b95508019841693508086168417925050509392505050565b5f819050919050565b5f819050919050565b5f620007b8620007b2620007ac8462000786565b6200078f565b62000786565b9050919050565b5f819050919050565b620007d38362000798565b620007eb620007e282620007bf565b84845462000731565b825550505050565b5f90565b62000801620007f3565b6200080e818484620007c8565b505050565b5b818110156200083557620008295f82620007f7565b60018101905062000814565b5050565b601f82111562000884576200084e8162000704565b620008598462000716565b8101602085101562000869578190505b62000881620008788562000716565b83018262000813565b50505b505050565b5f82821c905092915050565b5f620008a65f198460080262000889565b1980831691505092915050565b5f620008c0838362000895565b9150826002028217905092915050565b620008db826200066c565b67ffffffffffffffff811115620008f757620008f662000676565b5b620009038254620006d0565b6200091082828562000839565b5f60209050601f83116001811462000946575f841562000931578287015190505b6200093d8582620008b3565b865550620009ac565b601f198416620009568662000704565b5f5b828110156200097f5784890151825560018201915060208501945060208101905062000958565b868310156200099f57848901516200099b601f89168262000895565b8355505b6001600288020188555050505b505050505050565b620009bf81620005fa565b82525050565b5f602082019050620009da5f830184620009b4565b92915050565b7f4e487b71000000000000000000000000000000000000000000000000000000005f52601160045260245ffd5b5f62000a198262000786565b915062000a268362000786565b925082820190508082111562000a415762000a40620009e0565b5b92915050565b62000a528162000786565b82525050565b5f60608201905062000a6d5f830186620009b4565b62000a7c602083018562000a47565b62000a8b604083018462000a47565b949350505050565b5f60208201905062000aa85f83018462000a47565b92915050565b6115fe8062000abc5f395ff3fe608060405234801561000f575f80fd5b5060043610610114575f3560e01c8063715018a6116100a0578063a9059cbb1161006f578063a9059cbb146102d0578063d469801614610300578063dd62ed3e1461031e578063f2fde38b1461034e578063fce589d81461036a57610114565b8063715018a61461026c5780638da5cb5b1461027657806395d89b411461029457806398118cb4146102b257610114565b8063313ce567116100e7578063313ce567146101b457806332cb6b0c146101d25780635342acb4146101f05780636db794371461022057806370a082311461023c57610114565b806306fdde0314610118578063095ea7b31461013657806318160ddd1461016657806323b872dd14610184575b5f80fd5b610120610388565b60405161012d91906110d9565b60405180910390f35b610150600480360381019061014b919061118a565b610418565b60405161015d91906111e2565b60405180910390f35b61016e61043a565b60405161017b919061120a565b60405180910390f35b61019e60048036038101906101999190611223565b610443565b6040516101ab91906111e2565b60405180910390f35b6101bc610471565b6040516101c9919061128e565b60405180910390f35b6101da610479565b6040516101e7919061120a565b60405180910390f35b61020a600480360381019061020591906112a7565b610488565b60405161021791906111e2565b60405180910390f35b61023a600480360381019061023591906112d2565b6104a5565b005b610256600480360381019061025191906112a7565b610547565b604051610263919061120a565b60405180910390f35b61027461058c565b005b61027e61059f565b60405161028b919061131f565b60405180910390f35b61029c6105c7565b6040516102a991906110d9565b60405180910390f35b6102ba610657565b6040516102c7919061120a565b60405180910390f35b6102ea60048036038101906102e5919061118a565b61065d565b6040516102f791906111e2565b60405180910390f35b6103086107af565b604051610315919061131f565b60405180910390f35b61033860048036038101906103339190611338565b6107d4565b604051610345919061120a565b60405180910390f35b610368600480360381019061036391906112a7565b610856565b005b6103726108da565b60405161037f919061120a565b60405180910390f35b606060038054610397906113a3565b80601f01602080910402602001604051908101604052809291908181526020018280546103c3906113a3565b801561040e5780601f106103e55761010080835404028352916020019161040e565b820191905f5260205f20905b8154815290600101906020018083116103f157829003601f168201915b5050505050905090565b5f806104226108e0565b905061042f8185856108e7565b600191505092915050565b5f600254905090565b5f8061044d6108e0565b905061045a8582856108f9565b61046585858561098c565b60019150509392505050565b5f6012905090565b6a52b7d2dcc80cd2e400000081565b6009602052805f5260405f205f915054906101000a900460ff1681565b6104ad610a7c565b600a81836104bb9190611400565b11156104fc576040517f08c379a00000000000000000000000000000000000000000000000000000000081526004016104f39061147d565b60405180910390fd5b81600681905550806007819055507f5c6323bf1c2d7aaea2c091a4751c1c87af7f2864650c336507a77d0557af37a1828260405161053b92919061149b565b60405180910390a15050565b5f805f8373ffffffffffffffffffffffffffffffffffffffff1673ffffffffffffffffffffffffffffffffffffffff1681526020019081526020015f20549050919050565b610594610a7c565b61059d5f610b03565b565b5f60055f9054906101000a900473ffffffffffffffffffffffffffffffffffffffff16905090565b6060600480546105d6906113a3565b80601f0160208091040260200160405190810160405280929190818152602001828054610602906113a3565b801561064d5780601f106106245761010080835404028352916020019161064d565b820191905f5260205f20905b81548152906001019060200180831161063057829003601f168201915b5050505050905090565b60075481565b5f60095f3373ffffffffffffffffffffffffffffffffffffffff1673ffffffffffffffffffffffffffffffffffffffff1681526020019081526020015f205f9054906101000a900460ff16806106f9575060095f8473ffffffffffffffffffffffffffffffffffffffff1673ffffffffffffffffffffffffffffffffffffffff1681526020019081526020015f205f9054906101000a900460ff165b1561070f576107088383610bc6565b90506107a9565b5f60646006548461072091906114c2565b61072a9190611530565b90505f60646007548561073d91906114c2565b6107479190611530565b90505f8183866107579190611560565b6107619190611560565b905061076d3384610be8565b61079860085f9054906101000a900473ffffffffffffffffffffffffffffffffffffffff1683610bc6565b506107a38682610bc6565b93505050505b92915050565b60085f9054906101000a900473ffffffffffffffffffffffffffffffffffffffff1681565b5f60015f8473ffffffffffffffffffffffffffffffffffffffff1673ffffffffffffffffffffffffffffffffffffffff1681526020019081526020015f205f8373ffffffffffffffffffffffffffffffffffffffff1673ffffffffffffffffffffffffffffffffffffffff1681526020019081526020015f2054905092915050565b61085e610a7c565b5f73ffffffffffffffffffffffffffffffffffffffff168173ffffffffffffffffffffffffffffffffffffffff16036108ce575f6040517f1e4fbdf70000000000000000000000000000000000000000000000000000000081526004016108c5919061131f565b60405180910390fd5b6108d781610b03565b50565b60065481565b5f33905090565b6108f48383836001610c67565b505050565b5f61090484846107d4565b90507fffffffffffffffffffffffffffffffffffffffffffffffffffffffffffffffff8110156109865781811015610977578281836040517ffb8f41b200000000000000000000000000000000000000000000000000000000815260040161096e93929190611593565b60405180910390fd5b61098584848484035f610c67565b5b50505050565b5f73ffffffffffffffffffffffffffffffffffffffff168373ffffffffffffffffffffffffffffffffffffffff16036109fc575f6040517f96c6fd1e0000000000000000000000000000000000000000000000000000000081526004016109f3919061131f565b60405180910390fd5b5f73ffffffffffffffffffffffffffffffffffffffff168273ffffffffffffffffffffffffffffffffffffffff1603610a6c575f6040517fec442f05000000000000000000000000000000000000000000000000000000008152600401610a63919061131f565b60405180910390fd5b610a77838383610e36565b505050565b610a846108e0565b73ffffffffffffffffffffffffffffffffffffffff16610aa261059f565b73ffffffffffffffffffffffffffffffffffffffff1614610b0157610ac56108e0565b6040517f118cdaa7000000000000000000000000000000000000000000000000000000008152600401610af8919061131f565b60405180910390fd5b565b5f60055f9054906101000a900473ffffffffffffffffffffffffffffffffffffffff1690508160055f6101000a81548173ffffffffffffffffffffffffffffffffffffffff021916908373ffffffffffffffffffffffffffffffffffffffff1602179055508173ffffffffffffffffffffffffffffffffffffffff168173ffffffffffffffffffffffffffffffffffffffff167f8be0079c531659141344cd1fd0a4f28419497f9722a3daafe3b4186f6b6457e060405160405180910390a35050565b5f80610bd06108e0565b9050610bdd81858561098c565b600191505092915050565b5f73ffffffffffffffffffffffffffffffffffffffff168273ffffffffffffffffffffffffffffffffffffffff1603610c58575f6040517f96c6fd1e000000000000000000000000000000000000000000000000000000008152600401610c4f919061131f565b60405180910390fd5b610c63825f83610e36565b5050565b5f73ffffffffffffffffffffffffffffffffffffffff168473ffffffffffffffffffffffffffffffffffffffff1603610cd7575f6040517fe602df05000000000000000000000000000000000000000000000000000000008152600401610cce919061131f565b60405180910390fd5b5f73ffffffffffffffffffffffffffffffffffffffff168373ffffffffffffffffffffffffffffffffffffffff1603610d47575f6040517f94280d62000000000000000000000000000000000000000000000000000000008152600401610d3e919061131f565b60405180910390fd5b8160015f8673ffffffffffffffffffffffffffffffffffffffff1673ffffffffffffffffffffffffffffffffffffffff1681526020019081526020015f205f8573ffffffffffffffffffffffffffffffffffffffff1673ffffffffffffffffffffffffffffffffffffffff1681526020019081526020015f20819055508015610e30578273ffffffffffffffffffffffffffffffffffffffff168473ffffffffffffffffffffffffffffffffffffffff167f8c5be1e5ebec7d5bd14f71427d1e84f3dd0314c0f7b2291e5b200ac8c7c3b92584604051610e27919061120a565b60405180910390a35b50505050565b5f73ffffffffffffffffffffffffffffffffffffffff168373ffffffffffffffffffffffffffffffffffffffff1603610e86578060025f828254610e7a9190611400565b92505081905550610f54565b5f805f8573ffffffffffffffffffffffffffffffffffffffff1673ffffffffffffffffffffffffffffffffffffffff1681526020019081526020015f2054905081811015610f0f578381836040517fe450d38c000000000000000000000000000000000000000000000000000000008152600401610f0693929190611593565b60405180910390fd5b8181035f808673ffffffffffffffffffffffffffffffffffffffff1673ffffffffffffffffffffffffffffffffffffffff1681526020019081526020015f2081905550505b5f73ffffffffffffffffffffffffffffffffffffffff168273ffffffffffffffffffffffffffffffffffffffff1603610f9b578060025f8282540392505081905550610fe5565b805f808473ffffffffffffffffffffffffffffffffffffffff1673ffffffffffffffffffffffffffffffffffffffff1681526020019081526020015f205f82825401925050819055505b8173ffffffffffffffffffffffffffffffffffffffff168373ffffffffffffffffffffffffffffffffffffffff167fddf252ad1be2c89b69c2b068fc378daa952ba7f163c4a11628f55a4df523b3ef83604051611042919061120a565b60405180910390a3505050565b5f81519050919050565b5f82825260208201905092915050565b5f5b8381101561108657808201518184015260208101905061106b565b5f8484015250505050565b5f601f19601f8301169050919050565b5f6110ab8261104f565b6110b58185611059565b93506110c5818560208601611069565b6110ce81611091565b840191505092915050565b5f6020820190508181035f8301526110f181846110a1565b905092915050565b5f80fd5b5f73ffffffffffffffffffffffffffffffffffffffff82169050919050565b5f611126826110fd565b9050919050565b6111368161111c565b8114611140575f80fd5b50565b5f813590506111518161112d565b92915050565b5f819050919050565b61116981611157565b8114611173575f80fd5b50565b5f8135905061118481611160565b92915050565b5f80604083850312156111a05761119f6110f9565b5b5f6111ad85828601611143565b92505060206111be85828601611176565b9150509250929050565b5f8115159050919050565b6111dc816111c8565b82525050565b5f6020820190506111f55f8301846111d3565b92915050565b61120481611157565b82525050565b5f60208201905061121d5f8301846111fb565b92915050565b5f805f6060848603121561123a576112396110f9565b5b5f61124786828701611143565b935050602061125886828701611143565b925050604061126986828701611176565b9150509250925092565b5f60ff82169050919050565b61128881611273565b82525050565b5f6020820190506112a15f83018461127f565b92915050565b5f602082840312156112bc576112bb6110f9565b5b5f6112c984828501611143565b91505092915050565b5f80604083850312156112e8576112e76110f9565b5b5f6112f585828601611176565b925050602061130685828601611176565b9150509250929050565b6113198161111c565b82525050565b5f6020820190506113325f830184611310565b92915050565b5f806040838503121561134e5761134d6110f9565b5b5f61135b85828601611143565b925050602061136c85828601611143565b9150509250929050565b7f4e487b71000000000000000000000000000000000000000000000000000000005f52602260045260245ffd5b5f60028204905060018216806113ba57607f821691505b6020821081036113cd576113cc611376565b5b50919050565b7f4e487b71000000000000000000000000000000000000000000000000000000005f52601160045260245ffd5b5f61140a82611157565b915061141583611157565b925082820190508082111561142d5761142c6113d3565b5b92915050565b7f546f74616c2066656573206578636565642031302500000000000000000000005f82015250565b5f611467601583611059565b915061147282611433565b602082019050919050565b5f6020820190508181035f8301526114948161145b565b9050919050565b5f6040820190506114ae5f8301856111fb565b6114bb60208301846111fb565b9392505050565b5f6114cc82611157565b91506114d783611157565b92508282026114e581611157565b915082820484148315176114fc576114fb6113d3565b5b5092915050565b7f4e487b71000000000000000000000000000000000000000000000000000000005f52601260045260245ffd5b5f61153a82611157565b915061154583611157565b92508261155557611554611503565b5b828204905092915050565b5f61156a82611157565b915061157583611157565b925082820390508181111561158d5761158c6113d3565b5b92915050565b5f6060820190506115a65f830186611310565b6115b360208301856111fb565b6115c060408301846111fb565b94935050505056fea2646970667358221220038a26fd40f53cbeaa2037f8c1d642533e07cd4433ed9cb051938c6c0f40691564736f6c63430008140033",
  "linkReferences": {},
  "deployedLinkReferences": {},
  "immutableReferences": {},
  "inputSourceName": "project/contracts/MantleAgentToken.sol",
  "buildInfoId": "solc-0_8_20-306d644a87c5e8cae80a9e7c2d54edf1287e3cc1"
}